{
  "contractName": "Account",
  "abi": [
    {
      "inputs": [],
      "payable": false,
      "stateMutability": "nonpayable",
      "type": "constructor"
    },
    {
      "constant": false,
      "inputs": [
        {
          "name": "context",
          "type": "string"
        },
        {
          "name": "_private",
          "type": "bool"
        }
      ],
      "name": "publish",
      "outputs": [],
      "payable": false,
      "stateMutability": "nonpayable",
      "type": "function"
    },
    {
      "constant": false,
      "inputs": [
        {
          "name": "blogId",
          "type": "uint256"
        }
      ],
      "name": "deleteBlog",
      "outputs": [],
      "payable": false,
      "stateMutability": "nonpayable",
      "type": "function"
    },
    {
      "constant": false,
      "inputs": [
        {
          "name": "blogId",
          "type": "uint256"
        }
      ],
      "name": "like",
      "outputs": [],
      "payable": false,
      "stateMutability": "nonpayable",
      "type": "function"
    },
    {
      "constant": false,
      "inputs": [
        {
          "name": "blogId",
          "type": "uint256"
        }
      ],
      "name": "dislike",
      "outputs": [],
      "payable": false,
      "stateMutability": "nonpayable",
      "type": "function"
    },
    {
      "constant": true,
      "inputs": [
        {
          "name": "blogId",
          "type": "uint256"
        }
      ],
      "name": "getBlog",
      "outputs": [
        {
          "name": "context",
          "type": "string"
        },
        {
          "name": "publishTime",
          "type": "uint256"
        },
        {
          "name": "likeNum",
          "type": "uint256"
        },
        {
          "name": "dislikeNum",
          "type": "uint256"
        }
      ],
      "payable": false,
      "stateMutability": "view",
      "type": "function"
    },
    {
      "constant": true,
      "inputs": [],
      "name": "getBlogNum",
      "outputs": [
        {
          "name": "_blogNum",
          "type": "uint256"
        }
      ],
      "payable": false,
      "stateMutability": "view",
      "type": "function"
    },
    {
      "constant": false,
      "inputs": [
        {
          "name": "name",
          "type": "string"
        }
      ],
      "name": "follow",
      "outputs": [],
      "payable": false,
      "stateMutability": "nonpayable",
      "type": "function"
    },
    {
      "constant": false,
      "inputs": [
        {
          "name": "name",
          "type": "string"
        }
      ],
      "name": "nofollow",
      "outputs": [],
      "payable": false,
      "stateMutability": "nonpayable",
      "type": "function"
    },
    {
      "constant": true,
      "inputs": [
        {
          "name": "name",
          "type": "string"
        }
      ],
      "name": "isFollow",
      "outputs": [
        {
          "name": "isf",
          "type": "bool"
        }
      ],
      "payable": false,
      "stateMutability": "view",
      "type": "function"
    },
    {
      "constant": true,
      "inputs": [
        {
          "name": "randNonce",
          "type": "uint256"
        }
      ],
      "name": "getRandomTargetName",
      "outputs": [
        {
          "name": "targetname",
          "type": "string"
        }
      ],
      "payable": false,
      "stateMutability": "view",
      "type": "function"
    }
  ],
  "bytecode": "0x608060405234801561001057600080fd5b50600060018190555033600260006101000a81548173ffffffffffffffffffffffffffffffffffffffff021916908373ffffffffffffffffffffffffffffffffffffffff160217905550611034806100696000396000f3006080604052600436106100a4576000357c0100000000000000000000000000000000000000000000000000000000900463ffffffff1680631e4120bf146100a957806321bddbda1461014f578063390deb17146101c4578063618f8bbb1461022d578063af21c8b21461025a578063c02defac14610287578063d4868baa146102f0578063d7410f57146103ab578063e82935da1461042c578063f9b052cd14610459575b600080fd5b3480156100b557600080fd5b506100d460048036038101908080359060200190929190505050610484565b6040518080602001828103825283818151815260200191508051906020019080838360005b838110156101145780820151818401526020810190506100f9565b50505050905090810190601f1680156101415780820380516001836020036101000a031916815260200191505b509250505060405180910390f35b34801561015b57600080fd5b506101c2600480360381019080803590602001908201803590602001908080601f01602080910402602001604051908101604052809392919081815260200183838082843782019150505050505091929192908035151590602001909291905050506105b9565b005b3480156101d057600080fd5b5061022b600480360381019080803590602001908201803590602001908080601f01602080910402602001604051908101604052809392919081815260200183838082843782019150505050505091929192905050506106ed565b005b34801561023957600080fd5b506102586004803603810190808035906020019092919050505061072f565b005b34801561026657600080fd5b5061028560048036038101908080359060200190929190505050610767565b005b34801561029357600080fd5b506102ee600480360381019080803590602001908201803590602001908080601f0160208091040260200160405190810160405280939291908181526020018383808284378201915050505050509192919290505050610825565b005b3480156102fc57600080fd5b5061031b60048036038101908080359060200190929190505050610a9e565b6040518080602001858152602001848152602001838152602001828103825286818151815260200191508051906020019080838360005b8381101561036d578082015181840152602081019050610352565b50505050905090810190601f16801561039a5780820380516001836020036101000a031916815260200191505b509550505050505060405180910390f35b3480156103b757600080fd5b50610412600480360381019080803590602001908201803590602001908080601f0160208091040260200160405190810160405280939291908181526020018383808284378201915050505050509192919290505050610c39565b604051808215151515815260200191505060405180910390f35b34801561043857600080fd5b5061045760048036038101908080359060200190929190505050610dfa565b005b34801561046557600080fd5b5061046e610e32565b6040518082815260200191505060405180910390f35b60606000600380549050423385604051808481526020018373ffffffffffffffffffffffffffffffffffffffff1673ffffffffffffffffffffffffffffffffffffffff166c0100000000000000000000000002815260140182815260200193505050506040518091039020600190048115156104fc57fe5b06905060038181548110151561050e57fe5b906000526020600020018054600181600116156101000203166002900480601f0160208091040260200160405190810160405280929190818152602001828054600181600116156101000203166002900480156105ac5780601f10610581576101008083540402835291602001916105ac565b820191906000526020600020905b81548152906001019060200180831161058f57829003601f168201915b5050505050915050919050565b600260009054906101000a900473ffffffffffffffffffffffffffffffffffffffff1673ffffffffffffffffffffffffffffffffffffffff163373ffffffffffffffffffffffffffffffffffffffff1614151561061557600080fd5b606482511115151561062657600080fd5b42600080600154815260200190815260200160002060010181905550816000806001548152602001908152602001600020600001908051906020019061066d929190610e3c565b506000806000600154815260200190815260200160002060020181905550600080600060015481526020019081526020016000206003018190555080600080600154815260200190815260200160002060040160006101000a81548160ff0219169083151502179055506001600081548092919060010191905055505050565b600381908060018154018082558091505090600182039060005260206000200160009091929091909150908051906020019061072a929190610e3c565b505050565b6001548110151561073f57600080fd5b6000808281526020019081526020016000206003016000815480929190600101919050555050565b600260009054906101000a900473ffffffffffffffffffffffffffffffffffffffff1673ffffffffffffffffffffffffffffffffffffffff163373ffffffffffffffffffffffffffffffffffffffff161415156107c357600080fd5b6040805190810160405280600b81526020017f4064656c657465426c6f670000000000000000000000000000000000000000008152506000808381526020019081526020016000206000019080519060200190610821929190610e3c565b5050565b60008060606000809350600092505b6003805490508310156109de5760038381548110151561085057fe5b906000526020600020018054600181600116156101000203166002900480601f0160208091040260200160405190810160405280929190818152602001828054600181600116156101000203166002900480156108ee5780601f106108c3576101008083540402835291602001916108ee565b820191906000526020600020905b8154815290600101906020018083116108d157829003601f168201915b50505050509150846040518082805190602001908083835b60208310151561092b5780518252602082019150602081019050602083039250610906565b6001836020036101000a038019825116818451168082178552505050505050905001915050604051809103902060001916826040518082805190602001908083835b602083101515610992578051825260208201915060208101905060208303925061096d565b6001836020036101000a03801982511681845116808217855250505050505090500191505060405180910390206000191614156109d1578293506109de565b8280600101935050610834565b8390505b600160038054905003811015610a5457600360018201815481101515610a0457fe5b90600052602060002001600382815481101515610a1d57fe5b906000526020600020019080546001816001161561010002031660029004610a46929190610ebc565b5080806001019150506109e2565b6003600160038054905003815481101515610a6b57fe5b906000526020600020016000610a819190610f43565b6003805480919060019003610a969190610f8b565b505050505050565b6060600080600060015485101515610ab557600080fd5b60008086815260200190815260200160002060040160009054906101000a900460ff1615610b3a57600260009054906101000a900473ffffffffffffffffffffffffffffffffffffffff1673ffffffffffffffffffffffffffffffffffffffff163373ffffffffffffffffffffffffffffffffffffffff16141515610b3957600080fd5b5b6000808681526020019081526020016000206000018054600181600116156101000203166002900480601f016020809104026020016040519081016040528092919081815260200182805460018160011615610100020316600290048015610be35780601f10610bb857610100808354040283529160200191610be3565b820191906000526020600020905b815481529060010190602001808311610bc657829003601f168201915b505050505093506000808681526020019081526020016000206001015492506000808681526020019081526020016000206002015491506000808681526020019081526020016000206003015490509193509193565b6000806060600091505b600380549050821015610dee57600382815481101515610c5f57fe5b906000526020600020018054600181600116156101000203166002900480601f016020809104026020016040519081016040528092919081815260200182805460018160011615610100020316600290048015610cfd5780601f10610cd257610100808354040283529160200191610cfd565b820191906000526020600020905b815481529060010190602001808311610ce057829003601f168201915b50505050509050836040518082805190602001908083835b602083101515610d3a5780518252602082019150602081019050602083039250610d15565b6001836020036101000a038019825116818451168082178552505050505050905001915050604051809103902060001916816040518082805190602001908083835b602083101515610da15780518252602082019150602081019050602083039250610d7c565b6001836020036101000a0380198251168184511680821785525050505050509050019150506040518091039020600019161415610de15760019250610df3565b8180600101925050610c43565b600092505b5050919050565b60015481101515610e0a57600080fd5b6000808281526020019081526020016000206002016000815480929190600101919050555050565b6000600154905090565b828054600181600116156101000203166002900490600052602060002090601f016020900481019282601f10610e7d57805160ff1916838001178555610eab565b82800160010185558215610eab579182015b82811115610eaa578251825591602001919060010190610e8f565b5b509050610eb89190610fb7565b5090565b828054600181600116156101000203166002900490600052602060002090601f016020900481019282601f10610ef55780548555610f32565b82800160010185558215610f3257600052602060002091601f016020900482015b82811115610f31578254825591600101919060010190610f16565b5b509050610f3f9190610fb7565b5090565b50805460018160011615610100020316600290046000825580601f10610f695750610f88565b601f016020900490600052602060002090810190610f879190610fb7565b5b50565b815481835581811115610fb257818360005260206000209182019101610fb19190610fdc565b5b505050565b610fd991905b80821115610fd5576000816000905550600101610fbd565b5090565b90565b61100591905b808211156110015760008181610ff89190610f43565b50600101610fe2565b5090565b905600a165627a7a723058200a3110dad6638fd053838b8db545fddb7e43d7e1ebf1552788abe989dc7016d90029",
  "source": "pragma solidity ^0.4.17;\n\ncontract Account {\n  struct Blog\n  {\n    string context;\n    uint publishTime;\n    uint likeNum;\n    uint dislikeNum;\n    bool _private;\n  }\n\n  mapping (uint => Blog) blogs;\n  uint blogNum;\n  address owner;\n  string[] targets;\n  \n  modifier onlyOwner\n  {\n    require(msg.sender == owner);\n    _;\n  }\n\n  function Account() public\n  {\n    blogNum = 0;\n    owner = msg.sender;\n  }\n\n  function publish (string context, bool _private) public onlyOwner\n  {\n    require(bytes(context).length <= 100);\n\n    blogs[blogNum].publishTime = now;\n    blogs[blogNum].context = context;\n    blogs[blogNum].likeNum = 0;\n    blogs[blogNum].dislikeNum = 0;\n    //default is public\n    blogs[blogNum]._private = _private; \n    blogNum++;\n  }\n  \n  function deleteBlog(uint blogId) public onlyOwner\n  {\n      blogs[blogId].context = \"@deleteBlog\";\n  }\n\n  function like (uint blogId) public \n  {\n    require(blogId < blogNum);\n    blogs[blogId].likeNum++;\n  }\n\n  function dislike (uint blogId) public\n  {\n    require(blogId < blogNum);\n    blogs[blogId].dislikeNum++;\n  }\n\n  function getBlog (uint blogId) public constant returns (string context, uint publishTime, uint likeNum, uint dislikeNum)\n  {\n    require(blogId < blogNum);\n\n    if(blogs[blogId]._private)\n      require(msg.sender == owner);\n\n    context = blogs[blogId].context;\n    publishTime = blogs[blogId].publishTime;\n    likeNum = blogs[blogId].likeNum;\n    dislikeNum = blogs[blogId].dislikeNum;\n  }\n\n  function getBlogNum() public constant returns (uint _blogNum) \n  {\n    return blogNum;\n  } \n  \n  function follow(string name) public\n  {\n      targets.push(name);\n  }\n  \n  function nofollow(string name) public\n  {\n        uint index = 0;\n        for(uint i =0; i < targets.length; i++)\n        {\n            string memory  t = targets[i];\n            if(keccak256(t) == keccak256(name))\n            {\n                index = i;\n                break;\n            }\n        }\n        \n        for(uint j = index; j < targets.length - 1; j++)\n        {\n            targets[j] = targets[j + 1];\n        }\n        \n        delete targets[targets.length - 1];\n        targets.length--;\n  }\n\n    function isFollow(string name) public constant returns(bool isf)\n    {\n        for(uint i =0; i < targets.length; i++)\n        {\n            string memory  t = targets[i];\n            if(keccak256(t) == keccak256(name))\n                return true;\n        }\n        return false;\n    }\n  \n  function getRandomTargetName(uint randNonce) public constant returns (string targetname)\n  {\n      uint random = uint(keccak256(now,msg.sender,randNonce))%targets.length;\n      \n      return targets[random];\n  }\n}\n",
  "sourcePath": "/home/artemis/test/contracts/Account.sol",
  "compiler": {
    "name": "solc",
    "version": "0.4.24+commit.e67f0147.Emscripten.clang"
  },
  "schemaVersion": "2.0.1",
  "updatedAt": "2018-12-15T14:54:33.386Z"
}