{
  "contractName": "MyBlog",
  "abi": [
    {
      "inputs": [],
      "payable": false,
      "stateMutability": "nonpayable",
      "type": "constructor"
    },
    {
      "constant": false,
      "inputs": [
        {
          "name": "name",
          "type": "string"
        }
      ],
      "name": "register",
      "outputs": [],
      "payable": false,
      "stateMutability": "nonpayable",
      "type": "function"
    },
    {
      "constant": false,
      "inputs": [
        {
          "name": "name",
          "type": "string"
        },
        {
          "name": "add",
          "type": "address"
        }
      ],
      "name": "setDeployedAdd",
      "outputs": [],
      "payable": false,
      "stateMutability": "nonpayable",
      "type": "function"
    },
    {
      "constant": true,
      "inputs": [
        {
          "name": "name",
          "type": "string"
        }
      ],
      "name": "getDeployedAdd",
      "outputs": [
        {
          "name": "contractAdd",
          "type": "address"
        }
      ],
      "payable": false,
      "stateMutability": "view",
      "type": "function"
    },
    {
      "constant": true,
      "inputs": [],
      "name": "getAccountNum",
      "outputs": [
        {
          "name": "_accountNum",
          "type": "uint256"
        }
      ],
      "payable": false,
      "stateMutability": "view",
      "type": "function"
    },
    {
      "constant": true,
      "inputs": [
        {
          "name": "name",
          "type": "string"
        }
      ],
      "name": "getAddByName",
      "outputs": [
        {
          "name": "add",
          "type": "address"
        }
      ],
      "payable": false,
      "stateMutability": "view",
      "type": "function"
    },
    {
      "constant": true,
      "inputs": [
        {
          "name": "add",
          "type": "address"
        }
      ],
      "name": "getNameByAdd",
      "outputs": [
        {
          "name": "name",
          "type": "string"
        }
      ],
      "payable": false,
      "stateMutability": "view",
      "type": "function"
    },
    {
      "constant": true,
      "inputs": [
        {
          "name": "randNonce",
          "type": "uint256"
        }
      ],
      "name": "randomGetName",
      "outputs": [
        {
          "name": "name",
          "type": "string"
        }
      ],
      "payable": false,
      "stateMutability": "view",
      "type": "function"
    }
  ],
  "bytecode": "0x608060405234801561001057600080fd5b5033600560006101000a81548173ffffffffffffffffffffffffffffffffffffffff021916908373ffffffffffffffffffffffffffffffffffffffff1602179055506000600381905550610c61806100696000396000f300608060405260043610610083576000357c0100000000000000000000000000000000000000000000000000000000900463ffffffff16806312711b69146100885780635c999eb8146101445780636b9f38e5146101ed5780638e2015931461029657806395aa658d146102c1578063f290e00614610367578063f2c298be146103f0575b600080fd5b34801561009457600080fd5b506100c9600480360381019080803573ffffffffffffffffffffffffffffffffffffffff169060200190929190505050610459565b6040518080602001828103825283818151815260200191508051906020019080838360005b838110156101095780820151818401526020810190506100ee565b50505050905090810190601f1680156101365780820380516001836020036101000a031916815260200191505b509250505060405180910390f35b34801561015057600080fd5b506101ab600480360381019080803590602001908201803590602001908080601f0160208091040260200160405190810160405280939291908181526020018383808284378201915050505050509192919290505050610539565b604051808273ffffffffffffffffffffffffffffffffffffffff1673ffffffffffffffffffffffffffffffffffffffff16815260200191505060405180910390f35b3480156101f957600080fd5b50610254600480360381019080803590602001908201803590602001908080601f01602080910402602001604051908101604052809392919081815260200183838082843782019150505050505091929192905050506105ce565b604051808273ffffffffffffffffffffffffffffffffffffffff1673ffffffffffffffffffffffffffffffffffffffff16815260200191505060405180910390f35b3480156102a257600080fd5b506102ab610663565b6040518082815260200191505060405180910390f35b3480156102cd57600080fd5b506102ec6004803603810190808035906020019092919050505061066d565b6040518080602001828103825283818151815260200191508051906020019080838360005b8381101561032c578082015181840152602081019050610311565b50505050905090810190601f1680156103595780820380516001836020036101000a031916815260200191505b509250505060405180910390f35b34801561037357600080fd5b506103ee600480360381019080803590602001908201803590602001908080601f0160208091040260200160405190810160405280939291908181526020018383808284378201915050505050509192919290803573ffffffffffffffffffffffffffffffffffffffff16906020019092919050505061079f565b005b3480156103fc57600080fd5b50610457600480360381019080803590602001908201803590602001908080601f0160208091040260200160405190810160405280939291908181526020018383808284378201915050505050509192919290505050610912565b005b60606000808373ffffffffffffffffffffffffffffffffffffffff1673ffffffffffffffffffffffffffffffffffffffff1681526020019081526020016000208054600181600116156101000203166002900480601f01602080910402602001604051908101604052809291908181526020018280546001816001161561010002031660029004801561052d5780601f106105025761010080835404028352916020019161052d565b820191906000526020600020905b81548152906001019060200180831161051057829003601f168201915b50505050509050919050565b60006001826040518082805190602001908083835b602083101515610573578051825260208201915060208101905060208303925061054e565b6001836020036101000a038019825116818451168082178552505050505050905001915050908152602001604051809103902060009054906101000a900473ffffffffffffffffffffffffffffffffffffffff169050919050565b60006002826040518082805190602001908083835b60208310151561060857805182526020820191506020810190506020830392506105e3565b6001836020036101000a038019825116818451168082178552505050505050905001915050908152602001604051809103902060009054906101000a900473ffffffffffffffffffffffffffffffffffffffff169050919050565b6000600354905090565b60606000600354423385604051808481526020018373ffffffffffffffffffffffffffffffffffffffff1673ffffffffffffffffffffffffffffffffffffffff166c0100000000000000000000000002815260140182815260200193505050506040518091039020600190048115156106e257fe5b0690506004818154811015156106f457fe5b906000526020600020018054600181600116156101000203166002900480601f0160208091040260200160405190810160405280929190818152602001828054600181600116156101000203166002900480156107925780601f1061076757610100808354040283529160200191610792565b820191906000526020600020905b81548152906001019060200180831161077557829003601f168201915b5050505050915050919050565b6001826040518082805190602001908083835b6020831015156107d757805182526020820191506020810190506020830392506107b2565b6001836020036101000a038019825116818451168082178552505050505050905001915050908152602001604051809103902060009054906101000a900473ffffffffffffffffffffffffffffffffffffffff1673ffffffffffffffffffffffffffffffffffffffff163373ffffffffffffffffffffffffffffffffffffffff1614151561086457600080fd5b806002836040518082805190602001908083835b60208310151561089d5780518252602082019150602081019050602083039250610878565b6001836020036101000a038019825116818451168082178552505050505050905001915050908152602001604051809103902060006101000a81548173ffffffffffffffffffffffffffffffffffffffff021916908373ffffffffffffffffffffffffffffffffffffffff1602179055505050565b6000339050600073ffffffffffffffffffffffffffffffffffffffff166001836040518082805190602001908083835b6020831015156109675780518252602082019150602081019050602083039250610942565b6001836020036101000a038019825116818451168082178552505050505050905001915050908152602001604051809103902060009054906101000a900473ffffffffffffffffffffffffffffffffffffffff1673ffffffffffffffffffffffffffffffffffffffff161415156109dd57600080fd5b60008060008373ffffffffffffffffffffffffffffffffffffffff1673ffffffffffffffffffffffffffffffffffffffff168152602001908152602001600020805460018160011615610100020316600290049050141515610a3e57600080fd5b816000808373ffffffffffffffffffffffffffffffffffffffff1673ffffffffffffffffffffffffffffffffffffffff1681526020019081526020016000209080519060200190610a90929190610b90565b50806001836040518082805190602001908083835b602083101515610aca5780518252602082019150602081019050602083039250610aa5565b6001836020036101000a038019825116818451168082178552505050505050905001915050908152602001604051809103902060006101000a81548173ffffffffffffffffffffffffffffffffffffffff021916908373ffffffffffffffffffffffffffffffffffffffff1602179055506003600081548092919060010191905055506004829080600181540180825580915050906001820390600052602060002001600090919290919091509080519060200190610b8a929190610b90565b50505050565b828054600181600116156101000203166002900490600052602060002090601f016020900481019282601f10610bd157805160ff1916838001178555610bff565b82800160010185558215610bff579182015b82811115610bfe578251825591602001919060010190610be3565b5b509050610c0c9190610c10565b5090565b610c3291905b80821115610c2e576000816000905550600101610c16565b5090565b905600a165627a7a72305820e95324b0911d25672da34dd81452610394dd33a77cf157ed8466c572a11d5c130029",
  "source": "pragma solidity ^0.4.17;\n\ncontract MyBlog {\n  \n  mapping (address => string) nickNames;\n  mapping (string => address) registerNames;\n  mapping (string => address) deployedContracts;\n  uint totalAccounts;\n  string []names;\n\n  address admin;\n  modifier onlyRegistryAdmin \n  {\n    require(msg.sender == admin);\n    _;\n  }\n\n  function MyBlog() public\n  {\n    admin = msg.sender;\n    totalAccounts = 0;\n  }\n\n  function register(string name) public\n  {\n    address add = msg.sender;\n    require(registerNames[name] == address(0));\n    require(bytes(nickNames[add]).length == 0);\n\n    nickNames[add] = name;\n    registerNames[name] = add;\n    totalAccounts++;\n    names.push(name);\n  }\n\n  function setDeployedAdd(string name, address add) public\n  {\n    require (msg.sender == registerNames[name]);\n    deployedContracts[name] = add;\n  }\n\n  //can used by login or someother want to get by others name\n  function getDeployedAdd(string name) public constant returns (address contractAdd)\n  {\n    return deployedContracts[name];\n  }\n\n  function getAccountNum() public constant returns (uint _accountNum) \n  {\n    return totalAccounts;\n  } \n\n  function getAddByName(string name) public constant returns (address add)\n  {\n    return registerNames[name];\n  }\n\n  function getNameByAdd(address add) public constant returns (string name)\n  {\n    return nickNames[add];\n  }\n  \n  function randomGetName(uint randNonce) public constant returns (string name)\n  {\n      uint random = uint(keccak256(now,msg.sender,randNonce))%totalAccounts;\n      \n      return names[random];\n  }\n  \n}\n",
  "sourcePath": "/home/artemis/test/contracts/MyBlog.sol",
  "compiler": {
    "name": "solc",
    "version": "0.4.24+commit.e67f0147.Emscripten.clang"
  },
  "schemaVersion": "2.0.1",
  "updatedAt": "2018-12-26T09:12:37.081Z"
}